{
  "_format": "hh-sol-artifact-1",
  "contractName": "UMKM",
  "sourceName": "contracts/UMKM.sol",
  "abi": [
    {
      "inputs": [
        {
          "internalType": "uint256",
          "name": "_goal",
          "type": "uint256"
        }
      ],
      "stateMutability": "nonpayable",
      "type": "constructor"
    },
    {
      "inputs": [],
      "name": "InvalidShortString",
      "type": "error"
    },
    {
      "inputs": [
        {
          "internalType": "string",
          "name": "str",
          "type": "string"
        }
      ],
      "name": "StringTooLong",
      "type": "error"
    },
    {
      "anonymous": false,
      "inputs": [
        {
          "indexed": true,
          "internalType": "address",
          "name": "owner",
          "type": "address"
        },
        {
          "indexed": true,
          "internalType": "address",
          "name": "spender",
          "type": "address"
        },
        {
          "indexed": false,
          "internalType": "uint256",
          "name": "value",
          "type": "uint256"
        }
      ],
      "name": "Approval",
      "type": "event"
    },
    {
      "anonymous": false,
      "inputs": [
        {
          "indexed": true,
          "internalType": "address",
          "name": "delegator",
          "type": "address"
        },
        {
          "indexed": true,
          "internalType": "address",
          "name": "fromDelegate",
          "type": "address"
        },
        {
          "indexed": true,
          "internalType": "address",
          "name": "toDelegate",
          "type": "address"
        }
      ],
      "name": "DelegateChanged",
      "type": "event"
    },
    {
      "anonymous": false,
      "inputs": [
        {
          "indexed": true,
          "internalType": "address",
          "name": "delegate",
          "type": "address"
        },
        {
          "indexed": false,
          "internalType": "uint256",
          "name": "previousBalance",
          "type": "uint256"
        },
        {
          "indexed": false,
          "internalType": "uint256",
          "name": "newBalance",
          "type": "uint256"
        }
      ],
      "name": "DelegateVotesChanged",
      "type": "event"
    },
    {
      "anonymous": false,
      "inputs": [],
      "name": "EIP712DomainChanged",
      "type": "event"
    },
    {
      "anonymous": false,
      "inputs": [
        {
          "indexed": false,
          "internalType": "address",
          "name": "account",
          "type": "address"
        }
      ],
      "name": "Paused",
      "type": "event"
    },
    {
      "anonymous": false,
      "inputs": [
        {
          "indexed": true,
          "internalType": "bytes32",
          "name": "role",
          "type": "bytes32"
        },
        {
          "indexed": true,
          "internalType": "bytes32",
          "name": "previousAdminRole",
          "type": "bytes32"
        },
        {
          "indexed": true,
          "internalType": "bytes32",
          "name": "newAdminRole",
          "type": "bytes32"
        }
      ],
      "name": "RoleAdminChanged",
      "type": "event"
    },
    {
      "anonymous": false,
      "inputs": [
        {
          "indexed": true,
          "internalType": "bytes32",
          "name": "role",
          "type": "bytes32"
        },
        {
          "indexed": true,
          "internalType": "address",
          "name": "account",
          "type": "address"
        },
        {
          "indexed": true,
          "internalType": "address",
          "name": "sender",
          "type": "address"
        }
      ],
      "name": "RoleGranted",
      "type": "event"
    },
    {
      "anonymous": false,
      "inputs": [
        {
          "indexed": true,
          "internalType": "bytes32",
          "name": "role",
          "type": "bytes32"
        },
        {
          "indexed": true,
          "internalType": "address",
          "name": "account",
          "type": "address"
        },
        {
          "indexed": true,
          "internalType": "address",
          "name": "sender",
          "type": "address"
        }
      ],
      "name": "RoleRevoked",
      "type": "event"
    },
    {
      "anonymous": false,
      "inputs": [
        {
          "indexed": true,
          "internalType": "address",
          "name": "from",
          "type": "address"
        },
        {
          "indexed": true,
          "internalType": "address",
          "name": "to",
          "type": "address"
        },
        {
          "indexed": false,
          "internalType": "uint256",
          "name": "value",
          "type": "uint256"
        }
      ],
      "name": "Transfer",
      "type": "event"
    },
    {
      "anonymous": false,
      "inputs": [
        {
          "indexed": false,
          "internalType": "address",
          "name": "account",
          "type": "address"
        }
      ],
      "name": "Unpaused",
      "type": "event"
    },
    {
      "inputs": [],
      "name": "CLOCK_MODE",
      "outputs": [
        {
          "internalType": "string",
          "name": "",
          "type": "string"
        }
      ],
      "stateMutability": "view",
      "type": "function"
    },
    {
      "inputs": [],
      "name": "DEFAULT_ADMIN_ROLE",
      "outputs": [
        {
          "internalType": "bytes32",
          "name": "",
          "type": "bytes32"
        }
      ],
      "stateMutability": "view",
      "type": "function"
    },
    {
      "inputs": [],
      "name": "DOMAIN_SEPARATOR",
      "outputs": [
        {
          "internalType": "bytes32",
          "name": "",
          "type": "bytes32"
        }
      ],
      "stateMutability": "view",
      "type": "function"
    },
    {
      "inputs": [],
      "name": "MINTER_ROLE",
      "outputs": [
        {
          "internalType": "bytes32",
          "name": "",
          "type": "bytes32"
        }
      ],
      "stateMutability": "view",
      "type": "function"
    },
    {
      "inputs": [],
      "name": "PAUSER_ROLE",
      "outputs": [
        {
          "internalType": "bytes32",
          "name": "",
          "type": "bytes32"
        }
      ],
      "stateMutability": "view",
      "type": "function"
    },
    {
      "inputs": [
        {
          "internalType": "address",
          "name": "owner",
          "type": "address"
        },
        {
          "internalType": "address",
          "name": "spender",
          "type": "address"
        }
      ],
      "name": "allowance",
      "outputs": [
        {
          "internalType": "uint256",
          "name": "",
          "type": "uint256"
        }
      ],
      "stateMutability": "view",
      "type": "function"
    },
    {
      "inputs": [
        {
          "internalType": "address",
          "name": "spender",
          "type": "address"
        },
        {
          "internalType": "uint256",
          "name": "amount",
          "type": "uint256"
        }
      ],
      "name": "approve",
      "outputs": [
        {
          "internalType": "bool",
          "name": "",
          "type": "bool"
        }
      ],
      "stateMutability": "nonpayable",
      "type": "function"
    },
    {
      "inputs": [
        {
          "internalType": "address",
          "name": "account",
          "type": "address"
        }
      ],
      "name": "balanceOf",
      "outputs": [
        {
          "internalType": "uint256",
          "name": "",
          "type": "uint256"
        }
      ],
      "stateMutability": "view",
      "type": "function"
    },
    {
      "inputs": [
        {
          "internalType": "uint256",
          "name": "amount",
          "type": "uint256"
        }
      ],
      "name": "burn",
      "outputs": [],
      "stateMutability": "nonpayable",
      "type": "function"
    },
    {
      "inputs": [
        {
          "internalType": "address",
          "name": "account",
          "type": "address"
        },
        {
          "internalType": "uint256",
          "name": "amount",
          "type": "uint256"
        }
      ],
      "name": "burnFrom",
      "outputs": [],
      "stateMutability": "nonpayable",
      "type": "function"
    },
    {
      "inputs": [
        {
          "internalType": "address",
          "name": "account",
          "type": "address"
        },
        {
          "internalType": "uint32",
          "name": "pos",
          "type": "uint32"
        }
      ],
      "name": "checkpoints",
      "outputs": [
        {
          "components": [
            {
              "internalType": "uint32",
              "name": "fromBlock",
              "type": "uint32"
            },
            {
              "internalType": "uint224",
              "name": "votes",
              "type": "uint224"
            }
          ],
          "internalType": "struct ERC20Votes.Checkpoint",
          "name": "",
          "type": "tuple"
        }
      ],
      "stateMutability": "view",
      "type": "function"
    },
    {
      "inputs": [],
      "name": "clock",
      "outputs": [
        {
          "internalType": "uint48",
          "name": "",
          "type": "uint48"
        }
      ],
      "stateMutability": "view",
      "type": "function"
    },
    {
      "inputs": [],
      "name": "contribute",
      "outputs": [],
      "stateMutability": "payable",
      "type": "function"
    },
    {
      "inputs": [
        {
          "internalType": "address",
          "name": "",
          "type": "address"
        }
      ],
      "name": "contributions",
      "outputs": [
        {
          "internalType": "uint256",
          "name": "",
          "type": "uint256"
        }
      ],
      "stateMutability": "view",
      "type": "function"
    },
    {
      "inputs": [],
      "name": "decimals",
      "outputs": [
        {
          "internalType": "uint8",
          "name": "",
          "type": "uint8"
        }
      ],
      "stateMutability": "view",
      "type": "function"
    },
    {
      "inputs": [
        {
          "internalType": "address",
          "name": "spender",
          "type": "address"
        },
        {
          "internalType": "uint256",
          "name": "subtractedValue",
          "type": "uint256"
        }
      ],
      "name": "decreaseAllowance",
      "outputs": [
        {
          "internalType": "bool",
          "name": "",
          "type": "bool"
        }
      ],
      "stateMutability": "nonpayable",
      "type": "function"
    },
    {
      "inputs": [
        {
          "internalType": "address",
          "name": "delegatee",
          "type": "address"
        }
      ],
      "name": "delegate",
      "outputs": [],
      "stateMutability": "nonpayable",
      "type": "function"
    },
    {
      "inputs": [
        {
          "internalType": "address",
          "name": "delegatee",
          "type": "address"
        },
        {
          "internalType": "uint256",
          "name": "nonce",
          "type": "uint256"
        },
        {
          "internalType": "uint256",
          "name": "expiry",
          "type": "uint256"
        },
        {
          "internalType": "uint8",
          "name": "v",
          "type": "uint8"
        },
        {
          "internalType": "bytes32",
          "name": "r",
          "type": "bytes32"
        },
        {
          "internalType": "bytes32",
          "name": "s",
          "type": "bytes32"
        }
      ],
      "name": "delegateBySig",
      "outputs": [],
      "stateMutability": "nonpayable",
      "type": "function"
    },
    {
      "inputs": [
        {
          "internalType": "address",
          "name": "account",
          "type": "address"
        }
      ],
      "name": "delegates",
      "outputs": [
        {
          "internalType": "address",
          "name": "",
          "type": "address"
        }
      ],
      "stateMutability": "view",
      "type": "function"
    },
    {
      "inputs": [],
      "name": "eip712Domain",
      "outputs": [
        {
          "internalType": "bytes1",
          "name": "fields",
          "type": "bytes1"
        },
        {
          "internalType": "string",
          "name": "name",
          "type": "string"
        },
        {
          "internalType": "string",
          "name": "version",
          "type": "string"
        },
        {
          "internalType": "uint256",
          "name": "chainId",
          "type": "uint256"
        },
        {
          "internalType": "address",
          "name": "verifyingContract",
          "type": "address"
        },
        {
          "internalType": "bytes32",
          "name": "salt",
          "type": "bytes32"
        },
        {
          "internalType": "uint256[]",
          "name": "extensions",
          "type": "uint256[]"
        }
      ],
      "stateMutability": "view",
      "type": "function"
    },
    {
      "inputs": [
        {
          "internalType": "address",
          "name": "token",
          "type": "address"
        },
        {
          "internalType": "uint256",
          "name": "amount",
          "type": "uint256"
        }
      ],
      "name": "flashFee",
      "outputs": [
        {
          "internalType": "uint256",
          "name": "",
          "type": "uint256"
        }
      ],
      "stateMutability": "view",
      "type": "function"
    },
    {
      "inputs": [
        {
          "internalType": "contract IERC3156FlashBorrower",
          "name": "receiver",
          "type": "address"
        },
        {
          "internalType": "address",
          "name": "token",
          "type": "address"
        },
        {
          "internalType": "uint256",
          "name": "amount",
          "type": "uint256"
        },
        {
          "internalType": "bytes",
          "name": "data",
          "type": "bytes"
        }
      ],
      "name": "flashLoan",
      "outputs": [
        {
          "internalType": "bool",
          "name": "",
          "type": "bool"
        }
      ],
      "stateMutability": "nonpayable",
      "type": "function"
    },
    {
      "inputs": [
        {
          "internalType": "uint256",
          "name": "timepoint",
          "type": "uint256"
        }
      ],
      "name": "getPastTotalSupply",
      "outputs": [
        {
          "internalType": "uint256",
          "name": "",
          "type": "uint256"
        }
      ],
      "stateMutability": "view",
      "type": "function"
    },
    {
      "inputs": [
        {
          "internalType": "address",
          "name": "account",
          "type": "address"
        },
        {
          "internalType": "uint256",
          "name": "timepoint",
          "type": "uint256"
        }
      ],
      "name": "getPastVotes",
      "outputs": [
        {
          "internalType": "uint256",
          "name": "",
          "type": "uint256"
        }
      ],
      "stateMutability": "view",
      "type": "function"
    },
    {
      "inputs": [
        {
          "internalType": "bytes32",
          "name": "role",
          "type": "bytes32"
        }
      ],
      "name": "getRoleAdmin",
      "outputs": [
        {
          "internalType": "bytes32",
          "name": "",
          "type": "bytes32"
        }
      ],
      "stateMutability": "view",
      "type": "function"
    },
    {
      "inputs": [
        {
          "internalType": "address",
          "name": "account",
          "type": "address"
        }
      ],
      "name": "getVotes",
      "outputs": [
        {
          "internalType": "uint256",
          "name": "",
          "type": "uint256"
        }
      ],
      "stateMutability": "view",
      "type": "function"
    },
    {
      "inputs": [],
      "name": "goal",
      "outputs": [
        {
          "internalType": "uint256",
          "name": "",
          "type": "uint256"
        }
      ],
      "stateMutability": "view",
      "type": "function"
    },
    {
      "inputs": [
        {
          "internalType": "bytes32",
          "name": "role",
          "type": "bytes32"
        },
        {
          "internalType": "address",
          "name": "account",
          "type": "address"
        }
      ],
      "name": "grantRole",
      "outputs": [],
      "stateMutability": "nonpayable",
      "type": "function"
    },
    {
      "inputs": [
        {
          "internalType": "bytes32",
          "name": "role",
          "type": "bytes32"
        },
        {
          "internalType": "address",
          "name": "account",
          "type": "address"
        }
      ],
      "name": "hasRole",
      "outputs": [
        {
          "internalType": "bool",
          "name": "",
          "type": "bool"
        }
      ],
      "stateMutability": "view",
      "type": "function"
    },
    {
      "inputs": [
        {
          "internalType": "address",
          "name": "spender",
          "type": "address"
        },
        {
          "internalType": "uint256",
          "name": "addedValue",
          "type": "uint256"
        }
      ],
      "name": "increaseAllowance",
      "outputs": [
        {
          "internalType": "bool",
          "name": "",
          "type": "bool"
        }
      ],
      "stateMutability": "nonpayable",
      "type": "function"
    },
    {
      "inputs": [
        {
          "internalType": "address",
          "name": "token",
          "type": "address"
        }
      ],
      "name": "maxFlashLoan",
      "outputs": [
        {
          "internalType": "uint256",
          "name": "",
          "type": "uint256"
        }
      ],
      "stateMutability": "view",
      "type": "function"
    },
    {
      "inputs": [
        {
          "internalType": "address",
          "name": "to",
          "type": "address"
        },
        {
          "internalType": "uint256",
          "name": "amount",
          "type": "uint256"
        }
      ],
      "name": "mint",
      "outputs": [],
      "stateMutability": "nonpayable",
      "type": "function"
    },
    {
      "inputs": [],
      "name": "name",
      "outputs": [
        {
          "internalType": "string",
          "name": "",
          "type": "string"
        }
      ],
      "stateMutability": "view",
      "type": "function"
    },
    {
      "inputs": [
        {
          "internalType": "address",
          "name": "owner",
          "type": "address"
        }
      ],
      "name": "nonces",
      "outputs": [
        {
          "internalType": "uint256",
          "name": "",
          "type": "uint256"
        }
      ],
      "stateMutability": "view",
      "type": "function"
    },
    {
      "inputs": [
        {
          "internalType": "address",
          "name": "account",
          "type": "address"
        }
      ],
      "name": "numCheckpoints",
      "outputs": [
        {
          "internalType": "uint32",
          "name": "",
          "type": "uint32"
        }
      ],
      "stateMutability": "view",
      "type": "function"
    },
    {
      "inputs": [],
      "name": "pause",
      "outputs": [],
      "stateMutability": "nonpayable",
      "type": "function"
    },
    {
      "inputs": [],
      "name": "paused",
      "outputs": [
        {
          "internalType": "bool",
          "name": "",
          "type": "bool"
        }
      ],
      "stateMutability": "view",
      "type": "function"
    },
    {
      "inputs": [
        {
          "internalType": "address",
          "name": "owner",
          "type": "address"
        },
        {
          "internalType": "address",
          "name": "spender",
          "type": "address"
        },
        {
          "internalType": "uint256",
          "name": "value",
          "type": "uint256"
        },
        {
          "internalType": "uint256",
          "name": "deadline",
          "type": "uint256"
        },
        {
          "internalType": "uint8",
          "name": "v",
          "type": "uint8"
        },
        {
          "internalType": "bytes32",
          "name": "r",
          "type": "bytes32"
        },
        {
          "internalType": "bytes32",
          "name": "s",
          "type": "bytes32"
        }
      ],
      "name": "permit",
      "outputs": [],
      "stateMutability": "nonpayable",
      "type": "function"
    },
    {
      "inputs": [
        {
          "internalType": "bytes32",
          "name": "role",
          "type": "bytes32"
        },
        {
          "internalType": "address",
          "name": "account",
          "type": "address"
        }
      ],
      "name": "renounceRole",
      "outputs": [],
      "stateMutability": "nonpayable",
      "type": "function"
    },
    {
      "inputs": [
        {
          "internalType": "bytes32",
          "name": "role",
          "type": "bytes32"
        },
        {
          "internalType": "address",
          "name": "account",
          "type": "address"
        }
      ],
      "name": "revokeRole",
      "outputs": [],
      "stateMutability": "nonpayable",
      "type": "function"
    },
    {
      "inputs": [
        {
          "internalType": "bytes4",
          "name": "interfaceId",
          "type": "bytes4"
        }
      ],
      "name": "supportsInterface",
      "outputs": [
        {
          "internalType": "bool",
          "name": "",
          "type": "bool"
        }
      ],
      "stateMutability": "view",
      "type": "function"
    },
    {
      "inputs": [],
      "name": "symbol",
      "outputs": [
        {
          "internalType": "string",
          "name": "",
          "type": "string"
        }
      ],
      "stateMutability": "view",
      "type": "function"
    },
    {
      "inputs": [],
      "name": "totalContributions",
      "outputs": [
        {
          "internalType": "uint256",
          "name": "",
          "type": "uint256"
        }
      ],
      "stateMutability": "view",
      "type": "function"
    },
    {
      "inputs": [],
      "name": "totalSupply",
      "outputs": [
        {
          "internalType": "uint256",
          "name": "",
          "type": "uint256"
        }
      ],
      "stateMutability": "view",
      "type": "function"
    },
    {
      "inputs": [
        {
          "internalType": "address",
          "name": "to",
          "type": "address"
        },
        {
          "internalType": "uint256",
          "name": "amount",
          "type": "uint256"
        }
      ],
      "name": "transfer",
      "outputs": [
        {
          "internalType": "bool",
          "name": "",
          "type": "bool"
        }
      ],
      "stateMutability": "nonpayable",
      "type": "function"
    },
    {
      "inputs": [
        {
          "internalType": "address",
          "name": "from",
          "type": "address"
        },
        {
          "internalType": "address",
          "name": "to",
          "type": "address"
        },
        {
          "internalType": "uint256",
          "name": "amount",
          "type": "uint256"
        }
      ],
      "name": "transferFrom",
      "outputs": [
        {
          "internalType": "bool",
          "name": "",
          "type": "bool"
        }
      ],
      "stateMutability": "nonpayable",
      "type": "function"
    },
    {
      "inputs": [],
      "name": "unpause",
      "outputs": [],
      "stateMutability": "nonpayable",
      "type": "function"
    },
    {
      "inputs": [],
      "name": "withdrawFunds",
      "outputs": [],
      "stateMutability": "nonpayable",
      "type": "function"
    }
  ],
  "bytecode": "0x6101606040523480156200001257600080fd5b50604051620039953803806200399583398101604081905262000035916200040b565b60405180604001604052806004815260200163554d4b4d60e01b81525080604051806040016040528060018152602001603160f81b81525060405180604001604052806004815260200163554d4b4d60e01b81525060405180604001604052806003815260200162554d4b60e81b8152508160039080519060200190620000be92919062000365565b508051620000d490600490602084019062000365565b50506005805460ff1916905550620000fa8260076200021d602090811b6200169b17901c565b61012052620001178160086200021d602090811b6200169b17901c565b61014052815160208084019190912060e052815190820120610100524660a052620001a560e05161010051604080517f8b73c3c69bb8fe3d512ecc4cf759cc79239f7b179b0ffacaa9a75d522b39400f60208201529081019290925260608201524660808201523060a082015260009060c00160405160208183030381529060405280519060200120905090565b60805250503060c05250620001bc60003362000271565b620001e87f65d7a28e3265b37a6474929f336521b332c1681b933f6cb9f3376673440d862a3362000271565b620002147f9f2df0fed2c77648de5860a4cc508cd0818c85b8b8a1ab4ceeef8d981c8956a63362000271565b600e55620004dc565b60006020835110156200023d57620002358362000316565b90506200026b565b8262000254836200036260201b620016d21760201c565b815162000265926020019062000365565b5060ff90505b92915050565b60008281526006602090815260408083206001600160a01b038516845290915290205460ff16620003125760008281526006602090815260408083206001600160a01b03851684529091529020805460ff19166001179055620002d13390565b6001600160a01b0316816001600160a01b0316837f2f8788117e7eff1d82e926ec794901d17c78024a50270940304540a733656f0d60405160405180910390a45b5050565b600080829050601f815111156200034d578260405163305a27a960e01b815260040162000344919062000425565b60405180910390fd5b80516200035a826200047d565b179392505050565b90565b8280546200037390620004a5565b90600052602060002090601f016020900481019282620003975760008555620003e2565b82601f10620003b257805160ff1916838001178555620003e2565b82800160010185558215620003e2579182015b82811115620003e2578251825591602001919060010190620003c5565b50620003f0929150620003f4565b5090565b5b80821115620003f05760008155600101620003f5565b6000602082840312156200041e57600080fd5b5051919050565b600060208083528351808285015260005b81811015620004545785810183015185820160400152820162000436565b8181111562000467576000604083870101525b50601f01601f1916929092016040019392505050565b805160208083015191908110156200049f576000198160200360031b1b821691505b50919050565b600181811c90821680620004ba57607f821691505b602082108114156200049f57634e487b7160e01b600052602260045260246000fd5b60805160a05160c05160e05161010051610120516101405161345e620005376000396000610fe001526000610fb501526000611b9201526000611b6a01526000611ac501526000611aef01526000611b19015261345e6000f3fe6080604052600436106102935760003560e01c8063613255ab1161015a578063a217fddf116100c1578063d547741f1161007a578063d547741f14610824578063d7bb99ba14610844578063d9d98ce41461084c578063dd62ed3e1461086c578063e63ab1e91461088c578063f1127ed8146108c057600080fd5b8063a217fddf1461075b578063a457c2d714610770578063a9059cbb14610790578063c3cda520146107b0578063d505accf146107d0578063d5391393146107f057600080fd5b806384b0196e1161011357806384b0196e146106925780638e539e8c146106ba57806391d14854146106da57806391ddadf4146106fa57806395d89b41146107265780639ab24eb01461073b57600080fd5b8063613255ab146105b25780636fcfff45146105d257806370a082311461060757806379cc67901461063d5780637ecebe001461065d5780638456cb591461067d57600080fd5b806339509351116101fe57806342e94c90116101b757806342e94c90146104c75780634bf5d7e9146104f4578063587cde1e146105095780635c19a95c1461055a5780635c975abb1461057a5780635cffe9de1461059257600080fd5b8063395093511461041c5780633a46b1a81461043c5780633f4ba83a1461045c578063401938831461047157806340c10f191461048757806342966c68146104a757600080fd5b8063248a9ca311610250578063248a9ca3146103655780632f2ff15d14610395578063313ce567146103b55780633644e515146103d157806336568abe146103e657806337c089231461040657600080fd5b806301ffc9a71461029857806306fdde03146102cd578063095ea7b3146102ef57806318160ddd1461030f57806323b872dd1461032e57806324600fc31461034e575b600080fd5b3480156102a457600080fd5b506102b86102b3366004612dfb565b61090a565b60405190151581526020015b60405180910390f35b3480156102d957600080fd5b506102e2610941565b6040516102c49190612e7d565b3480156102fb57600080fd5b506102b861030a366004612ea5565b6109d3565b34801561031b57600080fd5b506002545b6040519081526020016102c4565b34801561033a57600080fd5b506102b8610349366004612ed1565b6109eb565b34801561035a57600080fd5b50610363610a0f565b005b34801561037157600080fd5b50610320610380366004612f12565b60009081526006602052604090206001015490565b3480156103a157600080fd5b506103636103b0366004612f2b565b610a96565b3480156103c157600080fd5b50604051601281526020016102c4565b3480156103dd57600080fd5b50610320610ac0565b3480156103f257600080fd5b50610363610401366004612f2b565b610acf565b34801561041257600080fd5b50610320600f5481565b34801561042857600080fd5b506102b8610437366004612ea5565b610b49565b34801561044857600080fd5b50610320610457366004612ea5565b610b6b565b34801561046857600080fd5b50610363610bf0565b34801561047d57600080fd5b50610320600e5481565b34801561049357600080fd5b506103636104a2366004612ea5565b610c25565b3480156104b357600080fd5b506103636104c2366004612f12565b610c59565b3480156104d357600080fd5b506103206104e2366004612f5b565b60106020526000908152604090205481565b34801561050057600080fd5b506102e2610c63565b34801561051557600080fd5b50610542610524366004612f5b565b6001600160a01b039081166000908152600b60205260409020541690565b6040516001600160a01b0390911681526020016102c4565b34801561056657600080fd5b50610363610575366004612f5b565b610cfb565b34801561058657600080fd5b5060055460ff166102b8565b34801561059e57600080fd5b506102b86105ad366004612f78565b610d05565b3480156105be57600080fd5b506103206105cd366004612f5b565b610ef8565b3480156105de57600080fd5b506105f26105ed366004612f5b565b610f20565b60405163ffffffff90911681526020016102c4565b34801561061357600080fd5b50610320610622366004612f5b565b6001600160a01b031660009081526020819052604090205490565b34801561064957600080fd5b50610363610658366004612ea5565b610f42565b34801561066957600080fd5b50610320610678366004612f5b565b610f57565b34801561068957600080fd5b50610363610f75565b34801561069e57600080fd5b506106a7610fa7565b6040516102c49796959493929190613017565b3480156106c657600080fd5b506103206106d5366004612f12565b611030565b3480156106e657600080fd5b506102b86106f5366004612f2b565b611097565b34801561070657600080fd5b5061070f6110c2565b60405165ffffffffffff90911681526020016102c4565b34801561073257600080fd5b506102e26110cd565b34801561074757600080fd5b50610320610756366004612f5b565b6110dc565b34801561076757600080fd5b50610320600081565b34801561077c57600080fd5b506102b861078b366004612ea5565b61115e565b34801561079c57600080fd5b506102b86107ab366004612ea5565b6111d9565b3480156107bc57600080fd5b506103636107cb3660046130c3565b6111e7565b3480156107dc57600080fd5b506103636107eb36600461311d565b61131d565b3480156107fc57600080fd5b506103207f9f2df0fed2c77648de5860a4cc508cd0818c85b8b8a1ab4ceeef8d981c8956a681565b34801561083057600080fd5b5061036361083f366004612f2b565b611481565b6103636114a6565b34801561085857600080fd5b50610320610867366004612ea5565b61158b565b34801561087857600080fd5b5061032061088736600461318b565b6115ec565b34801561089857600080fd5b506103207f65d7a28e3265b37a6474929f336521b332c1681b933f6cb9f3376673440d862a81565b3480156108cc57600080fd5b506108e06108db3660046131b9565b611617565b60408051825163ffffffff1681526020928301516001600160e01b031692810192909252016102c4565b60006001600160e01b03198216637965db0b60e01b148061093b57506301ffc9a760e01b6001600160e01b03198316145b92915050565b606060038054610950906131f0565b80601f016020809104026020016040519081016040528092919081815260200182805461097c906131f0565b80156109c95780601f1061099e576101008083540402835291602001916109c9565b820191906000526020600020905b8154815290600101906020018083116109ac57829003601f168201915b5050505050905090565b6000336109e18185856116d5565b5060019392505050565b6000336109f98582856117f9565b610a04858585611873565b506001949350505050565b6000610a1a81611a28565b600e54600f541015610a665760405162461bcd60e51b815260206004820152601060248201526f11dbd85b081b9bdd081c995858da195960821b60448201526064015b60405180910390fd5b60405133904780156108fc02916000818181858888f19350505050158015610a92573d6000803e3d6000fd5b5050565b600082815260066020526040902060010154610ab181611a28565b610abb8383611a32565b505050565b6000610aca611ab8565b905090565b6001600160a01b0381163314610b3f5760405162461bcd60e51b815260206004820152602f60248201527f416363657373436f6e74726f6c3a2063616e206f6e6c792072656e6f756e636560448201526e103937b632b9903337b91039b2b63360891b6064820152608401610a5d565b610a928282611be3565b6000336109e1818585610b5c83836115ec565b610b66919061323b565b6116d5565b6000610b756110c2565b65ffffffffffff168210610bc75760405162461bcd60e51b815260206004820152601960248201527804552433230566f7465733a20667574757265206c6f6f6b757603c1b6044820152606401610a5d565b6001600160a01b0383166000908152600c60205260409020610be99083611c4a565b9392505050565b7f65d7a28e3265b37a6474929f336521b332c1681b933f6cb9f3376673440d862a610c1a81611a28565b610c22611d33565b50565b7f9f2df0fed2c77648de5860a4cc508cd0818c85b8b8a1ab4ceeef8d981c8956a6610c4f81611a28565b610abb8383611d85565b610c223382611d8f565b606043610c6e6110c2565b65ffffffffffff1614610cc35760405162461bcd60e51b815260206004820152601d60248201527f4552433230566f7465733a2062726f6b656e20636c6f636b206d6f64650000006044820152606401610a5d565b5060408051808201909152601d81527f6d6f64653d626c6f636b6e756d6265722666726f6d3d64656661756c74000000602082015290565b610c223382611d99565b6000610d1085610ef8565b841115610d735760405162461bcd60e51b815260206004820152602b60248201527f4552433230466c6173684d696e743a20616d6f756e742065786365656473206d60448201526a30bc233630b9b42637b0b760a91b6064820152608401610a5d565b6000610d7f868661158b565b9050610d8b8786611d85565b6040516323e30c8b60e01b81527f439148f0bbc682ca079e46d6e2c2f0c1e3b820f1a291b069d8882abf8cf18dd9906001600160a01b038916906323e30c8b90610de39033908b908b9088908c908c90600401613253565b602060405180830381600087803b158015610dfd57600080fd5b505af1158015610e11573d6000803e3d6000fd5b505050506040513d601f19601f82011682018060405250810190610e3591906132af565b14610e8e5760405162461bcd60e51b8152602060048201526024808201527f4552433230466c6173684d696e743a20696e76616c69642072657475726e2076604482015263616c756560e01b6064820152608401610a5d565b6000610ea48830610e9f858a61323b565b6117f9565b811580610eb857506001600160a01b038116155b15610ed557610ed088610ecb848961323b565b611d8f565b610eea565b610edf8887611d8f565b610eea888284611873565b506001979650505050505050565b60006001600160a01b0382163014610f1157600061093b565b60025461093b906000196132c8565b6001600160a01b0381166000908152600c602052604081205461093b90611e12565b610f4d8233836117f9565b610a928282611d8f565b6001600160a01b03811660009081526009602052604081205461093b565b7f65d7a28e3265b37a6474929f336521b332c1681b933f6cb9f3376673440d862a610f9f81611a28565b610c22611e7b565b600060608082808083610fdb7f00000000000000000000000000000000000000000000000000000000000000006007611eb8565b6110067f00000000000000000000000000000000000000000000000000000000000000006008611eb8565b60408051600080825260208201909252600f60f81b9b939a50919850469750309650945092509050565b600061103a6110c2565b65ffffffffffff16821061108c5760405162461bcd60e51b815260206004820152601960248201527804552433230566f7465733a20667574757265206c6f6f6b757603c1b6044820152606401610a5d565b61093b600d83611c4a565b60009182526006602090815260408084206001600160a01b0393909316845291905290205460ff1690565b6000610aca43611f5c565b606060048054610950906131f0565b6001600160a01b0381166000908152600c6020526040812054801561114b576001600160a01b0383166000908152600c6020526040902080546000198301908110611129576111296132f5565b60009182526020909120015464010000000090046001600160e01b031661114e565b60005b6001600160e01b03169392505050565b6000338161116c82866115ec565b9050838110156111cc5760405162461bcd60e51b815260206004820152602560248201527f45524332303a2064656372656173656420616c6c6f77616e63652062656c6f77604482015264207a65726f60d81b6064820152608401610a5d565b610a0482868684036116d5565b6000336109e1818585611873565b834211156112375760405162461bcd60e51b815260206004820152601d60248201527f4552433230566f7465733a207369676e617475726520657870697265640000006044820152606401610a5d565b604080517fe48329057bfd03d55e49b547132e39cffd9c1820ad7b9d4c5307691425d15adf60208201526001600160a01b0388169181019190915260608101869052608081018590526000906112b1906112a99060a00160405160208183030381529060405280519060200120611fc3565b858585611ff0565b90506112bc81612018565b861461130a5760405162461bcd60e51b815260206004820152601960248201527f4552433230566f7465733a20696e76616c6964206e6f6e6365000000000000006044820152606401610a5d565b6113148188611d99565b50505050505050565b8342111561136d5760405162461bcd60e51b815260206004820152601d60248201527f45524332305065726d69743a206578706972656420646561646c696e650000006044820152606401610a5d565b60007f6e71edae12b1b97f4d1f60370fef10105fa2faae0126114a169c64845d6126c988888861139c8c612018565b6040805160208101969096526001600160a01b0394851690860152929091166060840152608083015260a082015260c0810186905260e00160405160208183030381529060405280519060200120905060006113f782611fc3565b9050600061140782878787611ff0565b9050896001600160a01b0316816001600160a01b03161461146a5760405162461bcd60e51b815260206004820152601e60248201527f45524332305065726d69743a20696e76616c6964207369676e617475726500006044820152606401610a5d565b6114758a8a8a6116d5565b50505050505050505050565b60008281526006602052604090206001015461149c81611a28565b610abb8383611be3565b60055460ff16156114f25760405162461bcd60e51b815260206004820152601660248201527510dc9bddd9199d5b991a5b99c81a5cc81c185d5cd95960521b6044820152606401610a5d565b6000341161154e5760405162461bcd60e51b815260206004820152602360248201527f436f6e747269627574696f6e206d75737420626520677265617465722074686160448201526206e20360ec1b6064820152608401610a5d565b34600f6000828254611560919061323b565b9091555050336000908152601060205260408120805434929061158490849061323b565b9091555050565b60006001600160a01b03831630146115e55760405162461bcd60e51b815260206004820152601b60248201527f4552433230466c6173684d696e743a2077726f6e6720746f6b656e00000000006044820152606401610a5d565b6000610be9565b6001600160a01b03918216600090815260016020908152604080832093909416825291909152205490565b60408051808201909152600080825260208201526001600160a01b0383166000908152600c60205260409020805463ffffffff841690811061165b5761165b6132f5565b60009182526020918290206040805180820190915291015463ffffffff8116825264010000000090046001600160e01b0316918101919091529392505050565b60006020835110156116b7576116b083612040565b905061093b565b828281516116c89260200190612d6b565b5060ff905061093b565b90565b6001600160a01b0383166117375760405162461bcd60e51b8152602060048201526024808201527f45524332303a20617070726f76652066726f6d20746865207a65726f206164646044820152637265737360e01b6064820152608401610a5d565b6001600160a01b0382166117985760405162461bcd60e51b815260206004820152602260248201527f45524332303a20617070726f766520746f20746865207a65726f206164647265604482015261737360f01b6064820152608401610a5d565b6001600160a01b0383811660008181526001602090815260408083209487168084529482529182902085905590518481527f8c5be1e5ebec7d5bd14f71427d1e84f3dd0314c0f7b2291e5b200ac8c7c3b925910160405180910390a3505050565b600061180584846115ec565b9050600019811461186d57818110156118605760405162461bcd60e51b815260206004820152601d60248201527f45524332303a20696e73756666696369656e7420616c6c6f77616e63650000006044820152606401610a5d565b61186d84848484036116d5565b50505050565b6001600160a01b0383166118d75760405162461bcd60e51b815260206004820152602560248201527f45524332303a207472616e736665722066726f6d20746865207a65726f206164604482015264647265737360d81b6064820152608401610a5d565b6001600160a01b0382166119395760405162461bcd60e51b815260206004820152602360248201527f45524332303a207472616e7366657220746f20746865207a65726f206164647260448201526265737360e81b6064820152608401610a5d565b61194483838361207e565b6001600160a01b038316600090815260208190526040902054818110156119bc5760405162461bcd60e51b815260206004820152602660248201527f45524332303a207472616e7366657220616d6f756e7420657863656564732062604482015265616c616e636560d01b6064820152608401610a5d565b6001600160a01b03848116600081815260208181526040808320878703905593871680835291849020805487019055925185815290927fddf252ad1be2c89b69c2b068fc378daa952ba7f163c4a11628f55a4df523b3ef910160405180910390a361186d848484612086565b610c228133612091565b611a3c8282611097565b610a925760008281526006602090815260408083206001600160a01b03851684529091529020805460ff19166001179055611a743390565b6001600160a01b0316816001600160a01b0316837f2f8788117e7eff1d82e926ec794901d17c78024a50270940304540a733656f0d60405160405180910390a45050565b6000306001600160a01b037f000000000000000000000000000000000000000000000000000000000000000016148015611b1157507f000000000000000000000000000000000000000000000000000000000000000046145b15611b3b57507f000000000000000000000000000000000000000000000000000000000000000090565b610aca604080517f8b73c3c69bb8fe3d512ecc4cf759cc79239f7b179b0ffacaa9a75d522b39400f60208201527f0000000000000000000000000000000000000000000000000000000000000000918101919091527f000000000000000000000000000000000000000000000000000000000000000060608201524660808201523060a082015260009060c00160405160208183030381529060405280519060200120905090565b611bed8282611097565b15610a925760008281526006602090815260408083206001600160a01b0385168085529252808320805460ff1916905551339285917ff6391f5c32d9c69d2a47ea670b442974b53935d1edc7fd64eb21e047a839171b9190a45050565b815460009081816005811115611ca4576000611c65846120ea565b611c6f90856132c8565b600088815260209020909150869082015463ffffffff161115611c9457809150611ca2565b611c9f81600161323b565b92505b505b80821015611cf1576000611cb883836121cf565b600088815260209020909150869082015463ffffffff161115611cdd57809150611ceb565b611ce881600161323b565b92505b50611ca4565b8015611d1d576000868152602090208101600019015464010000000090046001600160e01b0316611d20565b60005b6001600160e01b03169695505050505050565b611d3b6121ea565b6005805460ff191690557f5db9ee0a495bf2e6ff9c91a7834c1ba4fdd244a5e8aa4e537bd38aeae4b073aa335b6040516001600160a01b03909116815260200160405180910390a1565b610a928282612235565b610a9282826122bf565b6001600160a01b038281166000818152600b60208181526040808420805485845282862054949093528787166001600160a01b03198416811790915590519190951694919391928592917f3134e8a2e6d97e929a7e54011ea5485d7d196dd5f0ba4d4ef95803e8e3fc257f9190a461186d8284836122d7565b600063ffffffff821115611e775760405162461bcd60e51b815260206004820152602660248201527f53616665436173743a2076616c756520646f65736e27742066697420696e203360448201526532206269747360d01b6064820152608401610a5d565b5090565b611e83612414565b6005805460ff191660011790557f62e78cea01bee320cd4e420270b5ea74000d11b0c9f74754ebdbfc544b05a258611d683390565b606060ff8314611ecb576116b08361245a565b818054611ed7906131f0565b80601f0160208091040260200160405190810160405280929190818152602001828054611f03906131f0565b8015611f505780601f10611f2557610100808354040283529160200191611f50565b820191906000526020600020905b815481529060010190602001808311611f3357829003601f168201915b5050505050905061093b565b600065ffffffffffff821115611e775760405162461bcd60e51b815260206004820152602660248201527f53616665436173743a2076616c756520646f65736e27742066697420696e203460448201526538206269747360d01b6064820152608401610a5d565b600061093b611fd0611ab8565b8360405161190160f01b8152600281019290925260228201526042902090565b600080600061200187878787612499565b9150915061200e8161255d565b5095945050505050565b6001600160a01b03811660009081526009602052604090208054600181018255905b50919050565b600080829050601f8151111561206b578260405163305a27a960e01b8152600401610a5d9190612e7d565b80516120768261330b565b179392505050565b610abb612414565b610abb8383836126ab565b61209b8282611097565b610a92576120a8816126dd565b6120b38360206126ef565b6040516020016120c492919061332f565b60408051601f198184030181529082905262461bcd60e51b8252610a5d91600401612e7d565b6000816120f957506000919050565b600060016121068461288b565b901c6001901b9050600181848161211f5761211f6133a4565b048201901c90506001818481612137576121376133a4565b048201901c9050600181848161214f5761214f6133a4565b048201901c90506001818481612167576121676133a4565b048201901c9050600181848161217f5761217f6133a4565b048201901c90506001818481612197576121976133a4565b048201901c905060018184816121af576121af6133a4565b048201901c9050610be9818285816121c9576121c96133a4565b0461291f565b60006121de60028484186133ba565b610be99084841661323b565b60055460ff166122335760405162461bcd60e51b815260206004820152601460248201527314185d5cd8589b194e881b9bdd081c185d5cd95960621b6044820152606401610a5d565b565b61223f8282612935565b6002546001600160e01b0310156122b15760405162461bcd60e51b815260206004820152603060248201527f4552433230566f7465733a20746f74616c20737570706c79207269736b73206f60448201526f766572666c6f77696e6720766f74657360801b6064820152608401610a5d565b61186d600d612a0883612a14565b6122c98282612b89565b61186d600d612cce83612a14565b816001600160a01b0316836001600160a01b0316141580156122f95750600081115b15610abb576001600160a01b03831615612387576001600160a01b0383166000908152600c60205260408120819061233490612cce85612a14565b91509150846001600160a01b03167fdec2bacdd2f05b59de34da9b523dff8be42e5e38e818c82fdb0bae774387a724838360405161237c929190918252602082015260400190565b60405180910390a250505b6001600160a01b03821615610abb576001600160a01b0382166000908152600c6020526040812081906123bd90612a0885612a14565b91509150836001600160a01b03167fdec2bacdd2f05b59de34da9b523dff8be42e5e38e818c82fdb0bae774387a7248383604051612405929190918252602082015260400190565b60405180910390a25050505050565b60055460ff16156122335760405162461bcd60e51b815260206004820152601060248201526f14185d5cd8589b194e881c185d5cd95960821b6044820152606401610a5d565b6060600061246783612cda565b604080516020808252818301909252919250600091906020820181803683375050509182525060208101929092525090565b6000807f7fffffffffffffffffffffffffffffff5d576e7357a4501ddfe92f46681b20a08311156124d05750600090506003612554565b6040805160008082526020820180845289905260ff881692820192909252606081018690526080810185905260019060a0016020604051602081039080840390855afa158015612524573d6000803e3d6000fd5b5050604051601f1901519150506001600160a01b03811661254d57600060019250925050612554565b9150600090505b94509492505050565b6000816004811115612571576125716133dc565b141561257a5750565b600181600481111561258e5761258e6133dc565b14156125dc5760405162461bcd60e51b815260206004820152601860248201527f45434453413a20696e76616c6964207369676e617475726500000000000000006044820152606401610a5d565b60028160048111156125f0576125f06133dc565b141561263e5760405162461bcd60e51b815260206004820152601f60248201527f45434453413a20696e76616c6964207369676e6174757265206c656e677468006044820152606401610a5d565b6003816004811115612652576126526133dc565b1415610c225760405162461bcd60e51b815260206004820152602260248201527f45434453413a20696e76616c6964207369676e6174757265202773272076616c604482015261756560f01b6064820152608401610a5d565b6001600160a01b038381166000908152600b6020526040808220548584168352912054610abb929182169116836122d7565b606061093b6001600160a01b03831660145b606060006126fe8360026133f2565b61270990600261323b565b67ffffffffffffffff811115612721576127216132df565b6040519080825280601f01601f19166020018201604052801561274b576020820181803683370190505b509050600360fc1b81600081518110612766576127666132f5565b60200101906001600160f81b031916908160001a905350600f60fb1b81600181518110612795576127956132f5565b60200101906001600160f81b031916908160001a90535060006127b98460026133f2565b6127c490600161323b565b90505b600181111561283c576f181899199a1a9b1b9c1cb0b131b232b360811b85600f16601081106127f8576127f86132f5565b1a60f81b82828151811061280e5761280e6132f5565b60200101906001600160f81b031916908160001a90535060049490941c9361283581613411565b90506127c7565b508315610be95760405162461bcd60e51b815260206004820181905260248201527f537472696e67733a20686578206c656e67746820696e73756666696369656e746044820152606401610a5d565b600080608083901c156128a057608092831c92015b604083901c156128b257604092831c92015b602083901c156128c457602092831c92015b601083901c156128d657601092831c92015b600883901c156128e857600892831c92015b600483901c156128fa57600492831c92015b600283901c1561290c57600292831c92015b600183901c1561093b5760010192915050565b600081831061292e5781610be9565b5090919050565b6001600160a01b03821661298b5760405162461bcd60e51b815260206004820152601f60248201527f45524332303a206d696e7420746f20746865207a65726f2061646472657373006044820152606401610a5d565b6129976000838361207e565b80600260008282546129a9919061323b565b90915550506001600160a01b038216600081815260208181526040808320805486019055518481527fddf252ad1be2c89b69c2b068fc378daa952ba7f163c4a11628f55a4df523b3ef910160405180910390a3610a9260008383612086565b6000610be9828461323b565b82546000908190818115612a615760008781526020902082016000190160408051808201909152905463ffffffff8116825264010000000090046001600160e01b03166020820152612a76565b60408051808201909152600080825260208201525b905080602001516001600160e01b03169350612a9684868863ffffffff16565b9250600082118015612ac05750612aab6110c2565b65ffffffffffff16816000015163ffffffff16145b15612b0557612ace83612d02565b60008881526020902083016000190180546001600160e01b03929092166401000000000263ffffffff909216919091179055612b7f565b866040518060400160405280612b29612b1c6110c2565b65ffffffffffff16611e12565b63ffffffff168152602001612b3d86612d02565b6001600160e01b0390811690915282546001810184556000938452602093849020835194909301519091166401000000000263ffffffff909316929092179101555b5050935093915050565b6001600160a01b038216612be95760405162461bcd60e51b815260206004820152602160248201527f45524332303a206275726e2066726f6d20746865207a65726f206164647265736044820152607360f81b6064820152608401610a5d565b612bf58260008361207e565b6001600160a01b03821660009081526020819052604090205481811015612c695760405162461bcd60e51b815260206004820152602260248201527f45524332303a206275726e20616d6f756e7420657863656564732062616c616e604482015261636560f01b6064820152608401610a5d565b6001600160a01b0383166000818152602081815260408083208686039055600280548790039055518581529192917fddf252ad1be2c89b69c2b068fc378daa952ba7f163c4a11628f55a4df523b3ef910160405180910390a3610abb83600084612086565b6000610be982846132c8565b600060ff8216601f81111561093b57604051632cd44ac360e21b815260040160405180910390fd5b60006001600160e01b03821115611e775760405162461bcd60e51b815260206004820152602760248201527f53616665436173743a2076616c756520646f65736e27742066697420696e20326044820152663234206269747360c81b6064820152608401610a5d565b828054612d77906131f0565b90600052602060002090601f016020900481019282612d995760008555612ddf565b82601f10612db257805160ff1916838001178555612ddf565b82800160010185558215612ddf579182015b82811115612ddf578251825591602001919060010190612dc4565b50611e779291505b80821115611e775760008155600101612de7565b600060208284031215612e0d57600080fd5b81356001600160e01b031981168114610be957600080fd5b60005b83811015612e40578181015183820152602001612e28565b8381111561186d5750506000910152565b60008151808452612e69816020860160208601612e25565b601f01601f19169290920160200192915050565b602081526000610be96020830184612e51565b6001600160a01b0381168114610c2257600080fd5b60008060408385031215612eb857600080fd5b8235612ec381612e90565b946020939093013593505050565b600080600060608486031215612ee657600080fd5b8335612ef181612e90565b92506020840135612f0181612e90565b929592945050506040919091013590565b600060208284031215612f2457600080fd5b5035919050565b60008060408385031215612f3e57600080fd5b823591506020830135612f5081612e90565b809150509250929050565b600060208284031215612f6d57600080fd5b8135610be981612e90565b600080600080600060808688031215612f9057600080fd5b8535612f9b81612e90565b94506020860135612fab81612e90565b935060408601359250606086013567ffffffffffffffff80821115612fcf57600080fd5b818801915088601f830112612fe357600080fd5b813581811115612ff257600080fd5b89602082850101111561300457600080fd5b9699959850939650602001949392505050565b60ff60f81b881681526000602060e08184015261303760e084018a612e51565b8381036040850152613049818a612e51565b606085018990526001600160a01b038816608086015260a0850187905284810360c0860152855180825283870192509083019060005b8181101561309b5783518352928401929184019160010161307f565b50909c9b505050505050505050505050565b803560ff811681146130be57600080fd5b919050565b60008060008060008060c087890312156130dc57600080fd5b86356130e781612e90565b95506020870135945060408701359350613103606088016130ad565b92506080870135915060a087013590509295509295509295565b600080600080600080600060e0888a03121561313857600080fd5b873561314381612e90565b9650602088013561315381612e90565b9550604088013594506060880135935061316f608089016130ad565b925060a0880135915060c0880135905092959891949750929550565b6000806040838503121561319e57600080fd5b82356131a981612e90565b91506020830135612f5081612e90565b600080604083850312156131cc57600080fd5b82356131d781612e90565b9150602083013563ffffffff81168114612f5057600080fd5b600181811c9082168061320457607f821691505b6020821081141561203a57634e487b7160e01b600052602260045260246000fd5b634e487b7160e01b600052601160045260246000fd5b6000821982111561324e5761324e613225565b500190565b6001600160a01b03878116825286166020820152604081018590526060810184905260a06080820181905281018290526000828460c0840137600060c0848401015260c0601f19601f8501168301019050979650505050505050565b6000602082840312156132c157600080fd5b5051919050565b6000828210156132da576132da613225565b500390565b634e487b7160e01b600052604160045260246000fd5b634e487b7160e01b600052603260045260246000fd5b8051602080830151919081101561203a5760001960209190910360031b1b16919050565b7f416363657373436f6e74726f6c3a206163636f756e7420000000000000000000815260008351613367816017850160208801612e25565b7001034b99036b4b9b9b4b733903937b6329607d1b6017918401918201528351613398816028840160208801612e25565b01602801949350505050565b634e487b7160e01b600052601260045260246000fd5b6000826133d757634e487b7160e01b600052601260045260246000fd5b500490565b634e487b7160e01b600052602160045260246000fd5b600081600019048311821515161561340c5761340c613225565b500290565b60008161342057613420613225565b50600019019056fea26469706673582212209355e184429f31b078f1998c6d428e8b39ab228ccf7f6c799e41e6bf6faaed5964736f6c63430008090033",
  "linkReferences": {},
  "deployedLinkReferences": {}
}